:020000040800F2
:100000000000022091290008AD280008AF28000850
:10001000B1280008B3280008B52800080000000037
:10002000000000000000000000000000B7280008E9
:10003000B928000800000000BB280008BD280008FF
:10004000E1290008E1290008E1290008E129000868
:10005000E1290008E1290008E1290008E129000858
:10006000E1290008E1290008E1290008E129000848
:10007000E1290008E1290008E1290008E129000838
:10008000E1290008E1290008E1290008E129000828
:10009000E1290008E1290008E1290008E129000818
:1000A000E1290008E1290008E1290008E129000808
:1000B000E1290008E1290008E1290008E1290008F8
:1000C000E1290008E1290008E1290008E1290008E8
:1000D000E1290008E1290008E1290008E1290008D8
:1000E000E1290008E1290008E1290008E1290008C8
:1000F000E1290008E1290008E1290008E1290008B8
:10010000E1290008E1290008E1290008E1290008A7
:10011000E1290008E1290008E1290008E129000897
:10012000E1290008E1290008E1290008E129000887
:10013000E1290008E1290008E1290008E129000877
:10014000E1290008E1290008E1290008C528000884
:10015000E1290008E1290008E1290008E129000857
:10016000E1290008E1290008E1290008E129000847
:10017000E1290008E1290008E12900080000000049
:08018000E1290008E129000853
:1001880010B5054C237833B9044B13B10448AFF3C9
:1001980000800123237010BD0C0000200000000027
:1001A800F02A00080C4B43B10C480D4910B5AFF3C9
:1001B80000800C48036823B910BD0A48036833B9A6
:1001C8007047094B002BF7D0BDE810401847064B85
:1001D800002BF5D0184700BF00000000F02A0008E7
:1001E800100000200C0000200000000053B94AB99C
:1001F800002908BF00281CBF4FF0FF314FF0FF3027
:1002080000F07AB9ADF1080C6DE904CE00F006F8FB
:10021800DDF804E0DDE9022304B070472DE9F0477A
:100228008C460D460446089E002B51D18A4217463B
:100238006DD9B2FA82FEBEF1000F0BD0CEF1200CC0
:1002480001FA0EF520FA0CFC02FA0EF74CEA050C3E
:1002580000FA0EF44FEA174A250CBCFBFAF81FFA0D
:1002680087F90AFB18CC45EA0C4508FB09F3AB42B1
:100278000AD9ED1908F1FF3280F02381AB4240F230
:100288002081A8F102083D44ED1AA4B2B5FBFAF0AA
:100298000AFB105544EA054400FB09F9A14509D9B0
:1002A800E41900F1FF3380F00A81A14540F207818B
:1002B80002383C44A4EB090440EA08400021002E1F
:1002C80061D024FA0EF4002334607360BDE8F0872F
:1002D8008B4207D9002E54D0002186E82100084619
:1002E800BDE8F087B3FA83F1002940F08E80AB4275
:1002F80002D3824200F2FA80841A65EB03050120DA
:10030800AC46002E3FD086E81010BDE8F08712B941
:100318000127B7FBF2F7B7FA87FEBEF1000F34D119
:10032800EB1B3A0C1FFA87FC0121B3FBF2F8250CF2
:1003380002FB183345EA03450CFB08F3AB4207D927
:10034800ED1908F1FF3002D2AB4200F2D1808046AD
:10035800ED1AA3B2B5FBF2F002FB105543EA0544CF
:100368000CFB00FCA44507D9E41900F1FF3302D2C5
:10037800A44500F2B8801846A4EB0C0440EA0840F3
:100388009DE731463046BDE8F087CEF1200405FAF6
:100398000EF307FA0EF720FA04F83A0C25FA04F4DB
:1003A80048EA0308B4FBF2F14FEA184502FB11448E
:1003B8001FFA87FC45EA044501FB0CF3AB4200FA3F
:1003C8000EF409D9ED1901F1FF3080F08A80AB42B3
:1003D80040F2878002393D44EB1A1FFA88F5B3FBD7
:1003E800F2F002FB103345EA034500FB0CF3AB4285
:1003F80007D9ED1900F1FF386FD2AB426DD9023839
:100408003D44EB1A40EA01418FE7C1F1200722FA87
:1004180007F88B4005FA01F448EA030320FA07FEBF
:100428004FEA134CFD404EEA040EB5FBFCF94FEAC7
:100438001E440CFB19551FFA83F844EA054509FBCD
:1004480008F4AC4202FA01F200FA01FA08D9ED18F0
:1004580009F1FF3043D2AC4241D9A9F102091D4448
:100468002D1B1FFA8EFEB5FBFCF00CFB10554EEA57
:10047800054400FB08F8A04507D9E41800F1FF354A
:1004880029D2A04527D902381C4440EA0940A4EBE8
:100498000804A0FB02894C45C6464D4615D312D028
:1004A80056B1BAEB0E0364EB050404FA07F7CB4028
:1004B8001F43CC40376074600021BDE8F0871846C0
:1004C800F8E69046E0E6C245EAD2B8EB020E69EBE0
:1004D80003050138E4E72846D7E7404691E7814617
:1004E800BEE7014678E702383C4445E7084608E796
:1004F800A8F102083D442BE7704700BF034613F8F4
:10050800012B002AFBD1181A0138704710B5044690
:100518000E4B18784FF47A73B3FBF0F30C4A10685B
:10052800B0FBF3F000F08AFA68B90F2C01D901206A
:1005380010BD002221464FF0FF3000F04DFA034B6A
:100548005C60002010BD012010BD00BF000000202D
:100558000800002008B50B4B1A6842F400721A60B4
:100568001A6842F480621A601A6842F480721A604B
:10057800032000F01FFA0020FFF7C8FF02F006F979
:10058800002008BD003C0240034A1168034B1B7859
:100598000B441360704700BF40000020000000209B
:1005A800014B1868704700BF40000020002800F089
:1005B800A18038B5044690F82030D3B1226813687A
:1005C80023F002031360FFF7EBFF054623685A6820
:1005D80012F0020F10D0FFF7E3FF401B0A28F5D9ED
:1005E800636A43F400336362052384F820300120F2
:1005F80038BD02F0E7F8E1E71A6842F001021A6034
:10060800FFF7CEFF054623685A6812F0010F0DD197
:10061800FFF7C6FF401B0A28F5D9636A43F4003385
:100628006362052384F82030012038BD227E012A28
:100638003DD01A6822F080021A60637E012B3BD0FD
:100648002268136823F040031360A37E012B39D07E
:100658002268136823F020031360E37E012B37D050
:100668002268136843F010031360237F012B35D0F1
:100678002268136823F008031360637F012B33D0CB
:100688002268136823F0040313602168A368E268F2
:10069800134322691343626913436268013A13439F
:1006A800CB6100206062012384F8203038BD1A68CD
:1006B80042F080021A60C0E72268136843F04003E2
:1006C8001360C2E72268136843F020031360C4E78D
:1006D8002268136823F010031360C6E722681368C2
:1006E80043F008031360C8E72268136843F0040363
:1006F8001360CAE70120704790F82030013BDBB255
:10070800012B05D9436A43F48023436201207047D3
:1007180070B4434BD3F8002242F00102C3F8002220
:10072800D3F8002222F47C52C3F80022D3F8002226
:10073800486A42EA0022C3F800224A6902F01F020E
:10074800012000FA02F2D3F81C42D0430440C3F857
:100758001C42CB69B3B9324BD3F80C420440C3F8FE
:100768000C424C69CE688D8845EA0645483443F802
:1007780034504D698E680C8844EA0644483503EBCA
:10078800C5035C60CB69012B1DD08B69002B32D16E
:10079800234CD4F804320340C4F804320B698BBBF1
:1007A8001F4BD3F814422040C3F814020B6A012BE4
:1007B8002FD01B4AD2F8003223F00103C2F80032CE
:1007C800002070BC7047164BD3F80C421443C3F892
:1007D8000C424C690E688D8845EA0645483443F852
:1007E80034504D698E688C8944EA0644483503EBD9
:1007F800C5035C60C9E70A4CD4F804321343C4F853
:100808000432CBE70648D0F814321343C0F8143248
:10081800CCE7034BD3F81C120A43C3F81C22C8E7E1
:100828000064004038B590F82030DBB2012B05D0C9
:10083800436A43F400234362012038BD044602237F
:1008480080F820300268136823F001031360FFF773
:10085800A7FE054623685B6813F0010F0DD0FFF76C
:100868009FFE401B0A28F5D9636A43F4003363628C
:10087800052384F82030012038BD0020606238BD8F
:1008880030B490F82040013CE4B2012C06D9436A08
:1008980043F480234362012030BC704700296FD1A4
:1008A8000468E46814F0030F64D0056801F11B04C0
:1008B80024012C5904F004049460002C6BD10568C1
:1008C80001F11B0424012C59640D1460056801F121
:1008D8001B0424012D59C5F34005D560056825443E
:1008E8006D6805F00F051561056825446D68C5F349
:1008F8000725956105682C446468240C54610468D4
:100908000A011444D4F8B8411C7004681444D4F89B
:10091800B841C4F307245C7004681444D4F8B8419F
:10092800C4F307449C7004681444D4F8B841240EF6
:10093800DC7004681444D4F8BC411C710468144485
:10094800D4F8BC41C4F307245C7104681444D4F897
:10095800BC41C4F307449C7104682244D2F8BC210A
:10096800120EDA71F9B90268D36843F02003D36034
:10097800002091E7436A43F40013436201208BE7A8
:100988000468246914F0030F8FD1436A43F40013F9
:100998004362012080E7056801F11B0424012C59FA
:1009A800E408546092E70268136943F02003136176
:1009B800002071E7074AD36823F4E0631B041B0C8B
:1009C800000200F4E060184340F0BF6040F40030DB
:1009D800D060704700ED00E030B4164BDB68C3F31D
:1009E8000223C3F10704042C28BF04241D1D062D6F
:1009F80017D9033B012505FA04F4013C214099402D
:100A080005FA03F3013B1340194300280BDB0901E6
:100A1800C9B200F1604000F5614080F8001330BCB5
:100A280070470023E6E700F00F000901C9B2024B46
:100A38001954F4E700ED00E014ED00E00138B0F1DE
:100A4800807F0AD2064B5860F021064A82F82310AC
:100A58000020986007221A6070470120704700BF85
:100A680010E000E000ED00E0F0B583B000244BE0BA
:100A78004FEAD40E0EF1080E50F82E2004F00706A7
:100A8800B6000F27B74022EA07020F6907FA06F6F1
:100A9800324340F82E2046E0072600E0002606FAFA
:100AA8000EF6324302335E4E46F823205D4B1A6839
:100AB800EB4302EA03064F6817F4803F01D045EA8A
:100AC8000206584A1660526803EA02064F6817F48D
:100AD800003F01D045EA0206524A5660926803EA8E
:100AE80002064F6817F4801F01D045EA02064D4AF6
:100AF8009660D26813404E6816F4001F01D045EA8C
:100B08000203484AD36001340F2C00F28680012387
:100B1800A3400A6803EA0205AB42F4D14A68022AF4
:100B2800A6D0122AA4D006684FEA440E032202FA7D
:100B38000EF2D24316404F6807F0030707FA0EF784
:100B48003E4306604E68771E012F03D9112E01D04F
:100B5800122E0FD186681640CF6807FA0EF73E436B
:100B68008660466826EA03034E68C6F30016A64068
:100B780033434360C3681A408B6803FA0EF31A4381
:100B8800C2604B6813F0805FBDD000230193264BF1
:100B98005A6C42F480425A645B6C03F480430193BC
:100BA800019BA3089E1C1E4A52F8262004F0030647
:100BB8004FEA860E0F2606FA0EF622EA06021B4FA9
:100BC800B8423FF46BAF1A4EB0421AD006F58066B1
:100BD800B04218D006F58066B04216D006F5806699
:100BE800B04214D006F58066B04212D006F5806691
:100BF800B04210D006F58066B0423FF44DAF0826EB
:100C08004DE701264BE7022649E7032647E7042676
:100C180045E7052643E7062641E703B0F0BD00BFD8
:100C280000380140003C014000380240000002400A
:100C38000004024012B9090481617047816170475C
:100C4800F8B50668346A04F00F07C4F34343C4F3E5
:100C58000A14022B2ED16CB307EB8702D30003448E
:100C6800596C39B305462246304601F079FABA0084
:100C78003A44D3002B445A6C22445A64DA6C224416
:100C8800DA6406EB4713D3F810150B4A0A408AB109
:100C9800D3F8002522F0804242F00042C3F8002534
:100CA800BB00D919CA002A4492F8503083F00103D6
:100CB80082F85030F8BD00BF0000F81F30B583B08F
:100CC80005460468D4F840340193D4F840340093BE
:100CD800009B23F02E030093019B13F0020F07D013
:100CE800019B13F0010F28D1009B43F002030093EE
:100CF800019B13F0080F13D0009B43F008030093E7
:100D0800019B13F0040F34D0AB69022B1CD0EB68A5
:100D1800012B29D0284601F012FE284601F002FED8
:100D2800019B13F0200F03D0009B43F02003009396
:100D3800009BC4F8403403B030BDA36923F00053CE
:100D4800A36101F0EFFDCFE7019B03F4C023B3F5E6
:100D5800802F04D00121286801F01EFADAE7022169
:100D6800286801F019FAD5E74EF66022C4F8042481
:100D7800D0E7284601F0E9FDD4F8403423F02E03EB
:100D8800C4F840342A68936943F000539361C7E775
:100D9800F8B506460D46076807EB411707F5A06446
:100DA800A36813F0040F3ED00423A360E36843F064
:100DB8000203E360A36813F4007F6AD1A36813F009
:100DC800010F00F0878033694BB1AA002A44D30091
:100DD80033449A6C2169C1F31201521ADA64AA00E9
:100DE8002A44D3003344012283F85D200021996509
:100DF800A26093F83F30002B57D0022B55D0032B1D
:100E08005DD1D7F8003543F00053C7F8003505EB3E
:100E18008502D3003344012283F85C2029463046FA
:100E280001F08CFD4BE0A36813F0200F02D02023C3
:100E3800A360BFE7A36813F0080F17D1A36813F4E2
:100E4800806FB7D0E36843F00203E360006801F005
:100E5800EBF91023A36005EB8502D3003344082285
:100E680083F85D204FF48063A360A3E7E36843F051
:100E78000203E36001EB8102D3000344052283F8F7
:100E88005D201023A3600823A360006801F0CCF95B
:100E980090E7E36843F00203E3602946306801F015
:100EA800C3F94FF40073A360F8BDE36843F002038D
:100EB800E3602946306801F0B7F91023A360AB005E
:100EC8005919CA00324492F8503083F0010382F86D
:100ED8005030F8BDA36813F0020F62D0E36823F026
:100EE8000203E36005EB8502D300334493F85D30D9
:100EF800012B17D0052B29D0062B2FD0082B2DD04E
:100F0800032B16D105EB8502D3003344022283F864
:100F18005C20D7F8003523F0804343F00043C7F83E
:100F2800003506E005EB8502D3003344012283F83F
:100F38005C200223A36005EB8502D300334493F8B9
:100F48005C202946304601F0F9FCF8BD05EB850226
:100F5800D3003344052283F85C20EAE7AA002A4438
:100F6800D30033449A6D01329A65032A11D9AA0035
:100F78002A44D300334400229A65042283F85C2073
:100F8800D7F8003523F0804343F00043C7F8003515
:100F9800CFE705EB8502D3003344022283F85C20B7
:100FA800EEE7A36813F0800F19D1A36813F0100FB0
:100FB80014D005EB8502D300334493F83F30032B5C
:100FC80025D00BB1022B07D105EB8502D3003344A2
:100FD80000229A6533694BB31023A360F8BDE36818
:100FE80043F00203E360AB005919CA003244916D23
:100FF800013191652B44DA003244062382F85D30D2
:101008002946306801F010F98023A360F8BD05EB8C
:101018008502D300334400229A65E36843F0020353
:10102800E3602946306801F0FFF8D5E705EB850253
:10103800D3003344032283F85D20E36843F00203BE
:10104800E3602946306801F0EFF8C5E7F8B50368B2
:1010580003EB411303F5A064A26812F0040F11D149
:101068000E460546A26812F0200F26D02023A36062
:1010780001EB8102D3001A46034493F83D30012B5B
:1010880007D0F8BD0423A360E36843F00203E360DC
:10109800F8BD8B000244002182F83D103344DA0089
:1010A8000244022382F85C30E36843F00203E36001
:1010B8003146006801F0B8F8F8BDA26812F0400F98
:1010C80034D1A26812F4007F4AD1A26812F0010F4D
:1010D80051D1A26812F0080F62D1A26812F0100F65
:1010E8006FD08A000A44D300034400229A65032281
:1010F80083F85D2093F83D306BB901EB8102D30092
:10110800034493F83C3033B901EB8102D300034424
:10111800012283F83D20E36843F00203E36031468F
:10112800286801F081F81023A360F8BD8B005918D6
:10113800CA000244042182F85D10012182F83D10A2
:101148003344DA00024400239365E36843F0020362
:10115800E3603146006801F067F84023A360F8BDFA
:10116800E36843F00203E360006801F05DF84FF4C0
:101178000073A360F8BD8F007A18D30003440022DF
:101188009A65E36843F00203E360006801F04CF8F5
:101198000123A360B919C800284480F85D30F8BD60
:1011A8000823A360E36843F00203E360006801F0EA
:1011B8003BF806EB8601C8002844052380F85D301B
:1011C800F8BDA26812F0800F3AD1A26812F4806FBD
:1011D80047D1A26812F0020F3FF453AFE26822F041
:1011E8000202E26001EB8101CA001146024492F852
:1011F8005D20012A49D0032A68D0042A6ED0052A26
:1012080074D0062A01D0082A4AD1B1003144CA0054
:101218002A44916D0131916503296FD9B100314498
:10122800CA002A4400219165042182F85C10D3F891
:10123800002522F0804242F00042C3F800252FE04A
:10124800E36843F00203E360006800F0EDFF06EB9B
:101258008601CB002B44062283F85D208023A360FF
:10126800F8BDE36843F00203E360006800F0DCFFC8
:101278001023A3604FF48063A36006EB8601CB00C4
:101288002B44082283F85D20F8BD0B460344012255
:1012980083F85C2093F83F30023BDBB293420CD9D1
:1012A8000223A36006EB8602D3002B4493F85C204C
:1012B8003146284601F042FBE3E60B46034493F827
:1012C800512082F0010283F85120E9E706EB8602FB
:1012D800D3000344022283F85C20E1E706EB860290
:1012E800D3000344022283F85C20D9E706EB860288
:1012F800D3000344052283F85C20D1E706EB86017E
:10130800CA002A44022182F85C1090E7F8B5044626
:101318000568284600F03CFF012800D0F8BD206889
:1013280000F032FF0028F9D0206800F02DFF10F4FB
:10133800001F03D023684FF400125A61206800F0A0
:1013480023FF10F4801F03D023684FF480125A61E2
:10135800206800F019FF10F0806F03D023684FF069
:1013680080625A61206800F00FFF10F0020F02D06F
:10137800236802225A61206800F006FF10F0005F1F
:1013880028D1206800F000FF10F0807F34D1206859
:1013980000F0FAFE10F0080F32D1206800F0F4FED9
:1013A80010F0007F33D1206800F0EEFE10F0100F2F
:1013B80053D00123002BB1D02268936923F0100386
:1013C80093612046FFF73CFC2268936943F01003C1
:1013D8009361A3E7D5F8403423F02E03C5F84034D1
:1013E800204601F0A5FA0121206800F0D5FE236807
:1013F8004FF000525A61C4E72046FFF75FFCC6E78A
:10140800204601F089FA236808225A61C5E7206856
:1014180000F005FF0746002604E0F1B22046FFF77A
:1014280015FE0136A3689E4212D206F00F0327FA72
:1014380003F313F0010FF4D005EB4613D3F800358E
:1014480013F4004FE9D0F1B22046FFF7A1FCE8E71A
:1014580023684FF000725A61A5E70023AAE738B560
:1014680090F8B832012B01D1022038BD044601257D
:1014780080F8B852006800F041FE2946206800F064
:10148800ABFE002084F8B80238BD90F8B832012BC2
:1014980001D10220704710B50446012380F8B83204
:1014A800006800F029FF002084F8B80210BD000091
:1014B800002800F0BB8170B582B00446036813F0C1
:1014C800010F3BD0A74B9B6803F00C03042B2CD0D7
:1014D800A44B9B6803F00C03082B21D06368B3F579
:1014E800803F4FD0B3F5A02F52D09E4B1A6822F4FC
:1014F80080321A601A6822F480221A606368002B0E
:1015080050D0FFF74DF80546964B1B6813F4003F83
:1015180014D1FFF745F8401B6428F5D903208AE168
:10152800904B5B6813F4800FD8D08E4B1B6813F474
:10153800003F03D06368002B00F07A81236813F022
:10154800020F55D0874B9B6813F00C0F3ED0854B8C
:101558009B6803F00C03082B33D0E368002B68D09A
:101568000122814B1A60FFF71BF805467D4B1B686B
:1015780013F0020F54D1FFF713F8401B0228F5D9D6
:10158800032058E1774A136843F480331360B5E7C2
:10159800744B1A6842F480221A601A6842F4803246
:1015A8001A60ABE7FEF7FCFF05466E4B1B6813F4A9
:1015B800003FC3D0FEF7F4FF401B6428F5D9032091
:1015C80039E1684B5B6813F4800FC6D1654B1B6823
:1015D80013F0020F04D0E368012B01D001202AE1A7
:1015E800604A136823F0F803216943EAC1031360D2
:1015F800236813F0080F40D0636963B301225B4B83
:101608001A60FEF7CDFF0546564B5B6F13F0020FCD
:1016180033D1FEF7C5FF401B0228F5D903200AE1A4
:10162800504A136823F0F803216943EAC1031360A1
:10163800DEE700224C4B1A60FEF7B2FF0546494B25
:101648001B6813F0020FD3D0FEF7AAFF401B022835
:10165800F5D90320EFE00022444B1A60FEF7A0FF03
:101668000546404B5B6F13F0020F06D0FEF798FF5C
:10167800401B0228F5D90320DDE0236813F0040F8E
:1016880079D0384B1B6C13F0805F33D10023019362
:10169800344B1A6C42F080521A641B6C03F080536E
:1016A8000193019B0125324B1B6813F4807F23D0E3
:1016B800A368012B34D0052B38D02A4B1A6F22F09F
:1016C80001021A671A6F22F004021A67A368002B36
:1016D80036D0FEF765FF0646224B1B6F13F0020F4C
:1016E80048D1FEF75DFF801B41F288339842F3D959
:1016F8000320A0E00025D6E71D4A136843F4807351
:101708001360FEF74DFF0646194B1B6813F4807FE4
:10171800CED1FEF745FF801B0228F5D903208AE0C9
:10172800104A136F43F001031367CFE70D4B1A6F8D
:1017380042F004021A671A6F42F001021A67C5E7FD
:10174800FEF72EFF0646074B1B6F13F0020F11D052
:10175800FEF726FF801B41F288339842F3D9032015
:1017680069E000BF0038024000004742800E47424F
:1017780000700040E5B9A369002B5BD0304A92683D
:1017880002F00C02082A58D0022B17D000222D4B49
:101798001A60FEF705FF0446294B1B6813F0007F0B
:1017A80042D0FEF7FDFE001B0228F5D9032042E0D7
:1017B800234A136C23F080531364DCE70022214B87
:1017C8001A60FEF7EDFE05461D4B1B6813F0007FFF
:1017D80006D0FEF7E5FE401B0228F5D903202AE0D3
:1017E800E369226A1343626A43EA8213A26A5208CF
:1017F800013A43EA0243E26A43EA0263104A536049
:101808000122104B1A60FEF7CBFE04460C4B1B68F6
:1018180013F0007F06D1FEF7C3FE001B0228F5D99E
:10182800032008E0002006E0002004E001207047C3
:10183800012000E0002002B070BD0120FBE700BFDE
:101848000038024060004742F8B5314B9B6803F00E
:101858000C03042B59D0082B01D02E48F8BD2C4B73
:101868005A6802F03F025B6813F4800F2AD0284BB5
:101878005B68C3F388131E4600275C010025E41A41
:1018880065EB0705A90141EA9461A001001B61EB22
:101898000501CB0043EA5073C400A01943EB0701CC
:1018A8004B0243EAD0534402204619460023FEF770
:1018B8009DFC174B5B68C3F3014301335B00B0FB2E
:1018C800F3F0F8BD124B5B68C3F388131E4600277C
:1018D8005C010025E41A65EB0705A90141EA94615A
:1018E800A001001B61EB0501CB0043EA5073C40063
:1018F800A01943EB07018B0243EA90538402204668
:1019080019460023FEF772FCD3E70348F8BD00BF71
:10191800003802400024F40000127A00002800F089
:101928009D8070B504464F4B1B6803F00F038B4234
:1019380009D2CBB24B4A1370136803F00F039942D4
:1019480001D0012070BD236813F0020F17D013F0E7
:10195800040F04D0444A936843F4E0539360236827
:1019680013F0080F04D0404A936843F4604393602F
:101978003D4A936823F0F003A068034393600D4643
:10198800236813F0010F32D06368012B21D09A1E0F
:10199800012A25D9344A126812F0020F60D0324960
:1019A8008A6822F0030213438B60FEF7F9FD0646AE
:1019B8002D4B9B6803F00C036268B3EB820F16D0C3
:1019C800FEF7EEFD801B41F288339842F0D90320E0
:1019D80070BD254A126812F4003FE0D1012070BDA5
:1019E800214A126812F0007FD9D1012070BD1D4B29
:1019F8001B6803F00F039D4209D2EAB2194B1A7013
:101A08001B6803F00F039D4201D0012070BD2368BD
:101A180013F0040F06D0144A936823F4E053E168E6
:101A28000B439360236813F0080F07D00E4A93689E
:101A380023F46043216943EAC1039360FFF704FF7D
:101A4800094B9B68C3F30313084AD35CD840084B7F
:101A580018600020FEF75AFD002070BD0120704775
:101A6800012070BD003C024000380240082B0008ED
:101A780008000020014B1868704700BF08000020CC
:101A880008B5FFF7F7FF044B9B68C3F38223034AAB
:101A9800D35CD84008BD00BF00380240182B0008AE
:101AA80008B5FFF7E7FF044B9B68C3F34233034ACB
:101AB800D35CD84008BD00BF00380240182B00088E
:101AC80030B583B00546036813F0050F06D12B68BF
:101AD80013F0020F2ED1002003B030BD0022494B75
:101AE8001A60FEF75DFD0446474B1B6813F0006F54
:101AF80006D0FEF755FD001B0228F5D90320EBE7B9
:101B08006A68AB681B0743EA82133F4AC2F884300D
:101B180001223C4B1A60FEF743FD04463A4B1B6812
:101B280013F0006FD3D1FEF73BFD001B0228F5D957
:101B38000320D1E700230193334B1A6C42F0805203
:101B48001A641B6C03F080530193019B2F4A13689E
:101B580043F480731360FEF723FD04462B4B1B6888
:101B680013F4807F06D1FEF71BFD001B0228F5D970
:101B78000320B1E7244B1B6F13F4407312D0EA68BB
:101B880002F4407293420DD01F4B1A6F22F4407238
:101B98001F4901200860002008601A671B6F13F0B6
:101BA800010F13D1EB6803F44072B2F5407F1ED0E9
:101BB800154A936823F4F813936013490B6FEA6886
:101BC800C2F30B0213430B67002085E7FEF7E8FC1E
:101BD80004460D4B1B6F13F0020FE3D1FEF7E0FC38
:101BE800001B41F288339842F3D9032074E7064971
:101BF8008A6822F4F81223F0704323F440731343E5
:101C08008B60DAE768004742003802400070004005
:101C1800400E47422DE9F04704460268136923F451
:101C28004053C1680B4313618368026913434269D7
:101C38001343C26913430168CA6822F4164222F0AA
:101C48000C021343CB600268536923F44073816923
:101C58000B435361C369B3F5004F62D0D0F80080DD
:101C6800BB4B984500F01B8103F58063984500F055
:101C78001681FFF705FF00EB800000EB8000656828
:101C8800AD00B0FBF5F5B34FA7FB05356D092E0187
:101C9800FFF7F6FE00EB800000EB80006568AD0002
:101CA800B0FBF5FAFFF7ECFE00EB800000EB8000DC
:101CB8006568AD00B0FBF5F5A7FB05356D094FF07C
:101CC800640909FB15A52D013235A7FB05356D09FA
:101CD80005F0F0053544FFF7D3FE00EB800000EB7C
:101CE80080006668B600B0FBF6F6FFF7C9FE00EBA9
:101CF800800000EB800063689B00B0FBF3F0A7FB5B
:101D08000030400909FB10694FEA091909F1320945
:101D1800A7FB0937C7F343172F44C8F80870BDE875
:101D2800F087D0F8008003F1804303F5104398450D
:101D38005CD003F58063984558D0FFF7A1FE00EB0F
:101D4800800000EB800065686D00B0FBF5F5814F01
:101D5800A7FB05356D092E01FFF792FE00EB800009
:101D680000EB800065686D00B0FBF5FAFFF788FEB0
:101D780000EB800000EB800065686D00B0FBF5F5B6
:101D8800A7FB05356D094FF0640909FB15A5ED00A2
:101D98003235A7FB05356D096D0005F4F875354436
:101DA800FFF76EFE00EB800000EB800066687600AF
:101DB800B0FBF6F6FFF764FE00EB800000EB800056
:101DC80063685B00B0FBF3F3A7FB03235B0909FB24
:101DD80013694FEAC90909F13209A7FB0937C7F3A3
:101DE80042172F44C8F80870BDE8F087FFF758FE7F
:101DF80000EB800000EB800065686D00B0FBF5F536
:101E0800544FA7FB05356D092E01FFF749FE00EB7E
:101E1800800000EB800065686D00B0FBF5FAFFF705
:101E28003FFE00EB800000EB800065686D00B0FBB2
:101E3800F5F5A7FB05356D094FF0640909FB15A5F4
:101E4800ED003235A7FB05356D096D0005F4F87511
:101E58003544FFF725FE00EB800000EB8000666844
:101E68007600B0FBF6F6FFF71BFE00EB800000EBF8
:101E7800800063685B00B0FBF3F3A7FB03235B09F7
:101E880009FB13694FEAC90909F13209A7FB0937A8
:101E9800C7F342172F44C8F80870BDE8F087FFF76A
:101EA800FFFD00EB800000EB80006568AD00B0FB33
:101EB800F5F5284FA7FB05356D092E01FFF7F0FD55
:101EC80000EB800000EB80006568AD00B0FBF5FA20
:101ED800FFF7E6FD00EB800000EB80006568AD00D1
:101EE800B0FBF5F5A7FB05356D094FF0640909FB53
:101EF80015A52D013235A7FB05356D0905F0F0054F
:101F08003544FFF7CDFD00EB800000EB80006668EC
:101F1800B600B0FBF6F6FFF7C3FD00EB800000EB60
:101F2800800063689B00B0FBF3F3A7FB03235B0906
:101F380009FB13694FEA091909F13209A7FB0937A7
:101F4800C7F343172F44C8F80870BDE8F08700BFEF
:101F5800001001401F85EB512DE9F04105460F4661
:101F680016469846069C2B681B6837EA03030CBF85
:101F780001230023B3421ED1B4F1FF3FF3D02CB1AB
:101F8800FEF70EFBA0EB08008442ECD22A68D36867
:101F980023F4D073D3602A68536923F00103536193
:101FA800202385F8393085F83A30002385F8383011
:101FB8000320BDE8F0810020BDE8F08158B310B5DA
:101FC800044690F839300BB3242384F8393022685A
:101FD800D36823F40053D3602046FFF71BFE226822
:101FE800136923F4904313612268536923F02A0389
:101FF80053612268D36843F40053D3600020E06340
:10200800202384F8393084F83A3010BD80F838300D
:1020180000F00EFCD8E7012070472DE9F04182B0AE
:102028001E4690F83930DBB2202B04D00223184624
:1020380002B0BDE8F08104460D469046002955D00F
:10204800002A55D090F83830012B01D10223EEE751
:10205800012380F838300023C363212380F8393006
:10206800FEF79EFA0746A4F82480A4F8268010E01C
:1020780000963B46002280212046FFF76DFF00288E
:1020880038D122682B88C3F3080353602369CBB97E
:102098000235E38C9BB2BBB1E38C9BB2013B9BB294
:1020A800E384A368B3F5805FE2D000963B46002244
:1020B80080212046FFF750FFF0B923682A785A603C
:1020C8000135E6E70135E4E700963B46002240216A
:1020D8002046FFF741FF034608B10323A7E7202264
:1020E80084F83920002284F83820A0E701239EE7ED
:1020F80001239CE703239AE7032398E7836843F0C7
:102108000103836000207047836823F00103836024
:1021180000207047890141F020010161002301334B
:10212800054A934205D8026912F0200FF7D1002022
:1021380070470320704700BF400D03001023036160
:1021480000230133054A934205D8026912F0100FA3
:10215800F7D1002070470320704700BF400D0300EF
:1021680003329208002393420CD210B400F5805435
:10217800246841F8044B01339342F7D308465DF8CD
:10218800044B7047084670474269806910407047A1
:10219800406900F00100704710B400F58064D0F881
:1021A800003423F00303C0F80034D0F8003401F001
:1021B80003021343C0F80034012905D0022907D0CF
:1021C80000205DF8044B70474BF680336360F7E7F7
:1021D80041F270736360F3E782B000230193D0F893
:1021E80040340193019B23F02E030193019B13F4C8
:1021F800805F01D101290CD0019B13F4805F05D0C9
:1022080021B9019B23F48053C0F84034002002B068
:102218007047019B43F48053C0F84034ECE700F565
:102228008060406980B2704710B400EB411101F53D
:10223800A064D1F80035C3F381433BB3022B25D00A
:10224800D1F8003543F08043C1F80035D0F8103498
:1022580013F47F0F49D1D1F8003523F00043C1F8BA
:102268000035D1F8003543F00043C1F80035D1F806
:10227800003523F40043C1F8003500230133B3F5DA
:102288007A7F27D82268002AF8DB23E0D1F80035C6
:1022980043F08043C1F80035C36A13F47F0F1DD1A2
:1022A800D1F8003523F00043C1F80035D1F80035E6
:1022B80043F00043C1F80035D1F8003523F400435A
:1022C800C1F8003500230133B3F57A7F02D82268BC
:1022D800002AF8DB00205DF8044B7047D1F8003580
:1022E80043F00043C1F80035F4E7D1F8003543F076
:1022F8000043C1F80035EDE770B505460446FFF721
:1023080003FF10212846FFF705FF2846FFF716FFB1
:1023180000220AE004EB4211D1F8003523F08023B3
:1023280043F08043C1F8003501320F2AF2D900206A
:10233800034600E001300F2813D804EB401606F5D9
:10234800A061D6F8002522F4004242F04042C6F8C7
:1023580000250133B3F57A7FECD80A68002AF8DB48
:10236800E8E74FF0FF33C5F814346B612846FFF7F0
:10237800C5FE002070BD08B50378DBB20B2B00D07A
:1023880008BDD0F87833002BFAD09B699847F7E757
:1023980008B5D0F8BC330133C0F8BC33FFF7EBFF06
:1023A80008BD012380F81F337047002380F81F33CE
:1023B800704708B503784BB9012380F81E33D0F86D
:1023C800C8330BB104219847002008BD90F81F338B
:1023D800012BF9D102230370F6E710B5044600F08B
:1023E800CBFA2179204600F014F86179204600F0F4
:1023F80010F8002384F81E33D4F8C83313B105212C
:1024080020469847204600F0AFFA032323700020A7
:1024180010BD0A2906D8E03150F82130C3F30E0365
:1024280040F82130002070472DE9F0478CB0002497
:102438000794089409940A940B940194464B1A6BD8
:1024480042F010021A631A6B02F010020192019A0C
:1024580002941A6B42F004021A631A6B02F0040227
:102468000292029A03941A6B42F080021A631A6B62
:1024780002F080020392039A04941A6B42F001025C
:102488001A631A6B02F001020492049A05941A6BFB
:1024980042F002021A631A6B02F002020592059AD0
:1024A80006941A6B42F008021A631B6B03F00803C8
:1024B8000693069B294E012211463046FEF7BAFBC9
:1024C800274F22464FF210013846FEF7B3FB082388
:1024D80007930225089509940A944FF0050ACDF848
:1024E8002CA007A93046FEF7BFFA4FF00108CDF837
:1024F8001C801C4E0896099407A91B48FEF7B4FADD
:102508000423079308940994DFF8649007A94846C0
:10251800FEF7AAFA4FF480630793089509940A9482
:10252800CDF82CA007A94846FEF79EFA4FF21003F3
:102538000793CDF8208009940A9407A93846FEF736
:1025480093FA07950896099407A90848FEF78CFAA4
:102558000CB0BDE8F08700BF003802400008024018
:10256800000C02400000121000000240001002405F
:102578000004024008B50B480B4B03600923436075
:1025880000238360C3604FF4E02202614FF4C0026D
:102598004261037643768376C37603774377FEF703
:1025A80005F808BDE00000200064004008B50848B0
:1025B800084B03604FF4E133436000238360C3603A
:1025C80003610C2242618361C361FFF7F7FC08BD18
:1025D800A00000200044004070B598B030220021CF
:1025E8000DEB020000F038FA0024079408940994CF
:1025F8000A940B9403940494059406940194204B34
:102608001A6C42F080521A641B6C03F080530193D9
:10261800019B02941B4B1A6842F480421A601B68A3
:1026280003F480430293029B01260C964FF48033F7
:102638000D93022512954FF48003139308231493E6
:102648004FF4907315931695062317930CA8FEF76D
:102658002FFF0F230793089509944FF4A0530A936B
:102668004FF480530B93042107A8FFF757F90396FB
:10267800C0230493059503A8FFF722FA18B070BD8C
:10268800003802400070004010B5094900230B6172
:102698008B610122CA610B604B608B60CB600A6260
:1026A800044C2046FEF728F82046FEF7BBF810BD7C
:1026B80030010020E000002038B505460C460846E9
:1026C800FDF71CFF0A2382B221462846FFF7A5FC26
:1026D80038BD000008B5FDF73DFFFFF77DFFFFF7A8
:1026E800A3FEFFF747FFFFF761FFFFF7CDFF1F4C82
:1026F80023461F4A00211F48FEF7C2F82378627854
:1027080003EB0223A27803EB0243E27803EB0263B4
:10271800A3602079627900EB0220A27900EB0240E5
:10272800E27900EB0260E06022699342DFD0236126
:10273800114E0A22314600F08DF9104D0A22294621
:10274800206900F087F90E4C31462046FFF7B4FFA8
:102758000C492046FFF7B0FF29462046FFF7ACFF9B
:1027680009492046FFF7A8FFC1E700BF280000205D
:1027780044000020E000002078000020080100202C
:10278800A0000020202B0008242B000882B0002184
:1027980000910B4B5A6C42F480425A645A6C02F412
:1027A80080420092009A01911A6C42F080521A6499
:1027B8001B6C03F080530193019B02B0704700BF6C
:1027C8000038024000B589B00023039304930593B1
:1027D800069307930268144B9A4202D009B05DF839
:1027E80004FB0021019103F5EA331A6C42F00072F0
:1027F8001A641A6C02F000720192019A02911A6B23
:1028080042F008021A631B6B03F008030293029B51
:10281800032303930222049206930923079303A92F
:102828000248FEF721F9D9E700640040000C024095
:1028380000B589B000230393049305930693079387
:102848000268164B9A4202D009B05DF804FB0021D9
:10285800019103F5FA331A6C42F400321A641A6CC7
:1028680002F400320192019A02911A6B42F00102BD
:102878001A631B6B03F001030293029B0C2303935F
:102888000223049301230593032306930723079345
:1028980003A90348FEF7E8F8D6E700BF0044004064
:1028A800000002407047FEE7FEE7FEE7FEE77047DC
:1028B8007047704708B5FDF767FE08BD08B50248C0
:1028C800FEF724FD08BD00BF580100200F49D1F8CC
:1028D800883043F47003C1F888300D4B1A6842F011
:1028E80001021A60002098601A6822F0847222F4AB
:1028F80080321A60074A5A601A6822F480221A60E5
:10290800D8604FF000638B60704700BF00ED00E0B7
:10291800003802401030002408B5D0F8C002FFF794
:1029280037FD08BD08B5D0F8C002FFF742FD08BD65
:1029380008B5D0F8C002FFF750FD08BD704708B5CC
:10294800D0F8C002FFF72DFD08BD08B5D0F8C002C9
:10295800FFF72BFD08BD18B1022803D002207047ED
:10296800002070470120704708B5D0F8C403FEF76F
:1029780076FDFFF7F0FF08BD08B5D0F8C403FEF7F1
:1029880084FDFFF7E8FF08BDDFF834D0002103E03D
:102998000C4B5B58435004310B480C4B42189A427D
:1029A800F6D30B4A02E0002342F8043B094B9A4253
:1029B800F9D3FFF78BFF00F011F8FFF78BFE704794
:1029C80000000220602B0008000000200C000020FE
:1029D8000C0000201C040020FEE7000070B50D4E1E
:1029E8000D4CA41BA4100025A54209D10B4E0C4C7C
:1029F80000F07AF8A41BA4100025A54205D170BDEB
:102A080056F8253098470135EEE756F825309847AF
:102A18000135F2E7582B0008582B0008582B0008FE
:102A28005C2B0008931E222B10B50C4604D90023FA
:102A38000B701C46204610BD0A2A09D1002807DA67
:102A48002D230B7040420121214400F00DF8F1E7DD
:102A58000021F9E7FFF7E6BF02440346934200D19D
:102A6800704703F8011BF9E7F0B51E4C8BB003461D
:102A78000F466D4604F1200E206861682E4603C695
:102A8800083474453546F7D121793171911E206893
:102A9800306022294FF0000104D939700F463846BA
:102AA8000BB0F0BD781E0646B3FBF2F50DF1280E0B
:102AB80002FB153373444C1C13F8283C06F8013FFD
:102AC8002B4665B93D557A18CC1AA342E7DA447803
:102AD800157800F8015F013302F80149F4E721464F
:102AE800E2E700BF282B0008F8B500BFF8BC08BC17
:102AF8009E467047F8B500BFF8BC08BC9E467047B4
:102B08000000000000000000010203040607080995
:102B180000000000010203042C2000003B0A000012
:102B2800303132333435363738396162636465663B
:102B38006768696A6B6C6D6E6F70717273747576A5
:082B48007778797A00000000A3
:082B5000D4D6FF7F0100000054
:042B5800AD010008C3
:042B5C0089010008E3
:0C2B600001000000100000000024F40040
:040000050800299135
:00000001FF
